:1000000018420020FD610000F9610000F961000064
:1000100000000000000000000000000000000000E0
:10002000000000000000000000000000F961000076
:100030000000000000000000F9610000F96100000C
:10004000F9610000F9610000F9610000F961000048
:10005000A5420000F9610000F9610000F9610000AB
:10006000F9610000AD480000BD480000CD48000027
:10007000DD480000ED480000FD480000C9610000B7
:10008000D9610000E9610000711C0000811C0000C2
:10009000911C00000000000000000000F961000059
:1000A000F9610000F9610000F9610000F9610000E8
:1000B0000000000010B5064C2378002B07D1054B3B
:1000C000002B02D0044800E000BF0123237010BDC4
:1000D000A000002000000000D415010008B5084B66
:1000E000002B03D00748084900E000BF0748036819
:1000F000002B00D108BD064B002BFBD09847F9E739
:1001000000000000D4150100A4000020D415010057
:100110000000000030B585B001AA0B4B32CB32C2D3
:10012000019B83420AD0029B834205D00023039A9D
:10013000824205D1023302E0012300E00023DBB25A
:10014000181C05B030BDC04658E80000F0B54F4659
:100150004646C0B487B0041C0E1C9046081C914B48
:1001600098478146904D291C0C3105A803228F4FDA
:10017000B847291C103103A80622B8470023A36002
:10018000E36023616361237663764B469A00884B74
:10019000D450266043469B78082B04D117204A464A
:1001A000D20700D4F9E0237133880520DB0700D59E
:1001B000F3E0F37B1730DB0600D5EEE033889B07D6
:1001C00000D5EAE043461B7C002B0CD002A901239A
:1001D0008B700022CA704246127E0A704B704346F2
:1001E000187D744B984743461B7F002B0DD002A906
:1001F00001238B700022CA704246526A0A704B700B
:1002000043461B6AD8B26B4B98476B490B6A4A4608
:10021000520003A8125A13430B6243469B78082BE3
:1002200006D10B6A4A4601325200125A13430B623E
:1002300001A943461B780B7005AB4A469D5C281C00
:100240005E4B9847281C5E4B9847434698881B890D
:1002500003434246907992781043184343465B78B3
:10026000002B02D080231B01184321687F22CB7B07
:100270009343FCD130804346587B431E9841800015
:1002800043469B7B002B01D00123184321687F222A
:10029000CB7B9343FCD1FF333371002805D0216819
:1002A0007F22CB7B9343FCD170714346987ADB7AF3
:1002B000002B01D01023184343461B7B002B01D099
:1002C0002023184321687F22CB7B9343FCD1B0715C
:1002D00022687F21D37B8B43FCD12379042B05D06B
:1002E000082B41D01720002B57D124E07F21D37B4E
:1002F0008B43FCD128334246D35C337421687F2280
:10030000CB7B9343FCD129334246D35C33752168C0
:100310007F22CB7B9343FCD12A334246D35C337696
:1003200021687F22CB7B9343FCD12B334246D35CA5
:100330007376002031E07F21D37B8B43FCD1434691
:100340001B8D338221687F22CB7B9343FCD14346B4
:100350005B8D338321687F22CB7B9343FCD1434663
:100360009B8D7383002018E07F21D37B8B43FCD1CE
:1003700043469B6A336121687F22CB7B9343FCD148
:100380004346DB6AB36121687F22CB7B9343FCD178
:1003900043461B6BF3610020FFE707B00CBC90469F
:1003A0009946F0BD1501000058E80000EBD70000A9
:1003B000C4150020255B0000000400402D5A0000F9
:1003C000A159000010B502687F24D37BA343FCD160
:1003D0000379042B05D0082B0BD01720002B0BD151
:1003E00003E0C9B21174002006E089B21182002036
:1003F00002E011610020FFE710BDC04600207047F9
:100400000078002800D0E2207047C04600207047E6
:10041000C078002800D0E2207047C046C07800288D
:1004200000D0E2207047C046F0B5164B1D1CE135E8
:10043000FF35012700261C1C1A1C563A1188028819
:10044000914219D11A78052A01D0082A01D12770C2
:1004500012E0072A0FD892000B498A5897461E705F
:100460000A4A1278002A07D0084A1278013AD2B212
:1004700006490A7000E026706033AB42DBD10020F1
:10048000F0BDC0463A07002070E80000BC0800201C
:1004900000207047F0B504881A4A00231189A14250
:1004A00004D1111C5E310978062921D00133DBB259
:1004B0006032052BF2D11FE0124D5A00D4186401AE
:1004C0002C19261C58360827B771C67826758078EF
:1004D000207615E00B4C5A00D01840012018017608
:1004E000031C583307229A71E22109E0E22107E058
:1004F00081780029EED1DFE781780029EAD1F5E79C
:10050000081CF0BDDC06002010B5011C0D4B1B784B
:10051000DBB2132B12D80B4C2378DBB29800C01837
:10052000C000C3180848C0182922084B98472378F0
:1005300023780133DBB22370002002E0044B98479C
:10054000E22010BDBC00002014090020EBD7000001
:1005500035770000F8B54F464646C0B4061C4188C2
:10056000254A0023DCB21D1C1089884210D1101CC2
:100570005E30007803280BD15B005B195D011E4BD8
:100580005B19583305229A713579002D05D022E088
:1005900001336032052BE5D125E03278164F630038
:1005A00099461819400138180275327902763630AA
:1005B000311C22311022114B98469847201C484488
:1005C000400138184630311C32311722C04705220D
:1005D0005E23FA540BE070881321094B9847051EDF
:1005E00005D0E22503E03379E225002BF3D1281C66
:1005F0000CBC90469946F8BDDC060020EBD7000005
:100600005577000010B50088012101227823024CA3
:10061000A047002010BDC04675770000F0B55746D2
:100620004E464546E0B484B0041C068862490A1C64
:100630000023DDB21F1C1089B04214D1101C5E30A3
:10064000007802280FD15C4A5B00DB195B01D318EC
:100650005833043098716B005B195B01D3181A7D15
:10066000D30705D415E001336032052BE1D118E042
:10067000E378002B0DD02088690049194D014E49BF
:1006800049191A314D4B9847002800D18EE0E220DD
:100690008CE06B005D196D01474B5D1958350223E5
:1006A000AB7125880022D3B2161C0889A8420DD14F
:1006B000081C5E300078022808D1520092195601B9
:1006C0003D4A921958320321917105E00133DBB2A2
:1006D00001326031052AE6D101AA02211172E178C6
:1006E000917021795170042111700021D1709846C8
:1006F0005A00D21852013049525C022A04D101AA90
:1007000003219171D17136E001AA01219171D1715A
:1007100031E0D04728403870D0472840B8740137BE
:10072000B742F6D14B462A33234A9D18244B9946AB
:100730000F27C847384030700136AE42F9D1204B00
:10074000984743465B0043445B011B4AD3185885D6
:10075000283310221A73208843465A00424452011B
:10076000154B9A181A3201A90023164CA0470028ED
:100770001CD0E2201AE001AA1021517111714246E9
:100780005200424452010C498A18127E402AE2D19A
:100790005A00D3185B0199461F1C1A377F184E4622
:1007A00022367618064B9A460F25B2E704B01CBCD9
:1007B00090469946A246F0BDDC0600201585000053
:1007C00099D90000DD810000F0B557464E464546F8
:1007D000E0B484B08246048843490022D3B2161C98
:1007E0000889A0420DD1081C5E300078022808D18B
:1007F0005200921956013C4A9219583203219171C4
:1008000005E00133DBB201326031052AE6D101AAED
:100810000221117201399170517000211170D17053
:1008200098465A00D21852012F49525C022A04D12C
:1008300001AA03219171D17136E001AA01219171C0
:10084000D17131E0A84720403870A8472040B874E3
:100850000137B742F6D14B462A33234A9C18234D21
:100860000F27A847384030700136A642F9D11F4BF8
:10087000984743465B0043445B011B4AD3185885A5
:10088000283310221A735346188843465A004244AC
:100890005201154B9A181A3201A90023144CA04793
:1008A00000281BD0E22019E001AA1021517111711A
:1008B00042465200424452010B498A18127E402A95
:1008C000E1D15A00D3185B0199461F1C1A377F18D3
:1008D0004E4622367618054D0F24B3E704B01CBCF3
:1008E00090469946A246F0BDDC06002099D900004A
:1008F000DD810000F0B585B0051C02A82049062264
:10090000204EB04701AC201C291C0422B047E378DC
:10091000002B2BD100241C4EE7B21C48B047021E0E
:1009200005D1288813211A4B9847E22025E030385A
:10093000C3B2092B08D802ABE254101C154B9847E0
:100940000134062C02D0E7E7052FE6D90024114E2A
:1009500002ABE05CB0470134062CF9D1288801AB2A
:10096000997802AA0C4B9847002006E001AB5A8800
:1009700080235B009A42E9D0002005B0F0BDC0465C
:1009800098E90000EBD70000A11B000030750000C3
:100990005577000071D90000E983000070B5061C8E
:1009A0000188264B0025ECB21A898A4215D11A1CFF
:1009B0005E321278012A10D9204A6B005B195B0164
:1009C000D31858330621997163001B195B01D318A2
:1009D0005A8D73889A4213D106E00134E4B201358E
:1009E0006033052DDFD10BE0301D6100091949018D
:1009F000124B59182C310822114B984700280AD065
:100A000063001C1964010D4B1C19208905210D4B35
:100A10009847E22010E0FF222A403088074C53001C
:100A2000991849016118097D9B185A01A3181A33B6
:100A30000122054CA047002070BDC046DC06002006
:100A4000CDD7000055770000D985000008B50028F3
:100A500006D0CF23002904D0034B9847031C00E0A5
:100A6000CF23181C08BDC0463972000030B5002ADB
:100A700047D0062947D88900284B5B589F46284B0A
:100A800005240AE0274B012407E0274B052404E056
:100A9000264B012401E0264B0524002816D11968B5
:100AA00000290BD106E01D1C0433181F0068002824
:100AB00006D100E01D1C2A6001212CE00433002136
:100AC0000131C9B2A142EED3002124E00021012866
:100AD00021D1196891420CD106E01D1C0433181F66
:100AE0000068904207D100E01D1C00232B6001210B
:100AF00011E0043300210131C9B2A142EDD300213C
:100B000009E0002107E0002105E00A4B0524C4E7C5
:100B1000094B0124C1E7081C30BDC04690E8000025
:100B2000C8060020C4060020C0080020341300209E
:100B3000D4080020E808002010090020F0B547463E
:100B400080B490B0051C3D4A00231360536093604D
:100B5000D36013613A4A136053609360D3601361AA
:100B6000384A136053609360D3601361364A136050
:100B7000364A1360364A136053609360D360136142
:100B8000344A1360344CE133FF339846A044334F6A
:100B90004026201C00216022B847231C5E3300221F
:100BA0001A70267660344445F3D12D4B1A702D4BC4
:100BB0000E932D4B0D930CAB012119705A700F93AE
:100BC0000DA82A4B9847002800D0FEE70122284BA9
:100BD0001A7000200021274A274CA047002002213C
:100BE000264AA0476846264908310722254B9847E0
:100BF000002D03D16846244B98476D4602AC0A236A
:100C00002370224B638003A8291C07221D4B9847A1
:100C10000023E37623776377A377E37723846384E2
:100C20009E33A384201C1A4B98471A4809211A4B5B
:100C3000984710B004BC9046F0BDC046D4080020D0
:100C4000E8080020C806002010090020C406002083
:100C5000C008002034130020DC06002025D8000046
:100C6000BC080020E2040000480C0020BD73000016
:100C7000D4000020DCE900006D0A0000B4E90000A7
:100C800098E90000EBD7000095720000983A000048
:100C9000B972000028EA00004D0A000008B50121E1
:100CA0000122034B9847002800D0E22008BDC0462F
:100CB00091840000F0B5474680B498B0877A002F41
:100CC00000D0A9E0041C02905F48211C12225F4B57
:100CD000984701945E48211C07225E4B98470028E4
:100CE00000D19BE0029B1B78022B00D096E004A869
:100CF00000215022584B9847584E00230BE0591CB6
:100D0000107804ACE05401328BB2AB42F7D16036BC
:100D10002B1E502B04D01D1C1035ADB2321CEEE73B
:100D20000520029904AA4E4B9847071E00D186E081
:100D3000E22784E0EBB298460395201C0199072234
:100D4000B04700280AD1039A5300944663445E01D9
:100D5000444B9B19583302229A712BE001356034C1
:100D6000052DE7D163E0D9B288461D1C1178002912
:100D700018D102E00025002398466C00601940015C
:100D8000384E801902991222304B9847364A137810
:100D90000133DBB2137063195B01F318583302227D
:100DA0009A7107E041460131C9B288460133603289
:100DB000052BD8D1264802990722264B98470028B0
:100DC0000DD143465B0043445B01264AD3180522FC
:100DD0009A741F4B00221A609A809A712FE0434642
:100DE0005B0043445B011F4AD3180A229A74184BD4
:100DF00000211960998099710A2A20D107E01A4BC5
:100E00001B78029B18891321184B984717E0029B07
:100E10001889174B984712E0002710E0124B1B78F7
:100E2000DBB2042BEBD80F4C00250A4E82E75E2381
:100E30000C4AD35C002B9DD00E4A012393E7381C4B
:100E400018B004BC9046F0BDFC080020EBD70000B1
:100E5000C0000020CDD7000025D8000022070020C8
:100E6000B5770000DC060020BC08002055770000A4
:100E70009D0C00009A070020F0B5474680B4037827
:100E8000002B3AD12F4D0024461C2F4F301C291C1B
:100E90001022B847002838D00134E4B26035052C60
:100EA000F4D12AE0DCB21D1C117800291BD101E02D
:100EB00000250024254F6B0098465E197601BE1967
:100EC000301C23491222234B9847234A13780133BD
:100ED000DBB2137058360223B37145446D017D199E
:100EE0000833AB7421E001336032052BDAD124E002
:100EF000174B1889194B98471FE05E23134AD35CA0
:100F0000002BD5D0164A0123CCE7104963001A19EB
:100F100052018A18101C5830022585710A209074DD
:100F2000101C0B4912220B4B984763001C196401DB
:100F3000064B1C19A37C0A2BDAD0002004BC904677
:100F4000F0BDC04622070020CDD70000DC060020FF
:100F5000FC080020EBD70000BC0800209D0C00001E
:100F60009A070020F8B53A286CD80D1C8300364A41
:100F7000D3589F4684000026344FBB59002B04D021
:100F80001B59002B01D0281C98470436142EF4D18D
:100F900058E01338C4B2A40000262D4FBB59002BD3
:100FA00004D01B59002B01D0281C98470436142E5E
:100FB000F4D147E01D38C4B2A4000026254FBB5928
:100FC000002B04D01B59002B01D0281C9847043655
:100FD000142EF4D136E02738C0B21F4B1B68002B0B
:100FE00030D08000C358002B2CD0081C984729E033
:100FF0002D38C0B2194B1B68002B23D08000C3587A
:10100000002B1FD0081C98471CE03638C4B2A4003F
:101010000026134FBB59002B04D01B59002B01D0C5
:10102000281C98470436142EF4D10BE03838C0B28F
:101030000C4B1B68002B05D08000C358002B01D03F
:10104000081C9847F8BDC046ACE80000D408002052
:10105000E8080020C806002010090020C40600206F
:10106000C00800203413002010B508480849142295
:10107000084B9847041E05D1044B18780449064BC9
:10108000984700E0E224201C10BDC0460E09002055
:1010900028110020796B0000650F000070B590B03A
:1010A00008AC032363700F22A2700932E270237030
:1010B0000733237109266671262068440D490F3ACB
:1010C0000D4DA84700236A46137015335370E6731D
:1010D000EA33237431206844084910310822A847B4
:1010E000201C19216A460023054CA047002010B09F
:1010F00070BDC04628EA0000EBD7000098E9000068
:101100008D75000070B5104B1B889BB2002B18D05A
:101110000E4B1B681A780E4B1A800E4E1D1C0E4C7F
:10112000301C291CA0470028FAD1074A1388013B2C
:101130009BB21380002B06D0044A1368013313605E
:1011400001E0064B984770BDCA000020CC0000208B
:101150007813002044130020D9510000791B0000AF
:1011600070B5041C0D1C154B9847154B1C60154C95
:101170002580154B984723889BB2002B17D0104B26
:101180001B681A78114B1A80114E1D1C114C301C13
:10119000291CA0470028FAD10A4A1388013B9BB2B8
:1011A0001380002B03D0064A136801331360054AED
:1011B00013889BB2002BFBD1002070BD9141000031
:1011C000CC000020CA000020D1410000781300208C
:1011D00044130020D951000008B5011C0148024BFE
:1011E000984708BD44130020F551000070B590B039
:1011F0008023DB05009300230193FF2269460A81C7
:1012000000228B72CB72012124206C4621540130C4
:10121000215425316354013163540A9305316354D9
:101220000131635405932382E37622762277627636
:101230001323A3766277E1235B020893C4239B0305
:10124000039301235B420C930D931E4B0E931E4B95
:101250000F931E4E1E4D1F4C301C291C6A46A04782
:101260000028F9D1194D2C68201C1B4B98471F23CF
:1012700018401E3B8340181C184B18602A68D3691D
:10128000002BFCD122680233134323601448154914
:1012900080229200144B98470C4C201C13490122C9
:1012A000134DA847201C13490022A8473122A15CF6
:1012B00003230B43A3541048104B9847002010B051
:1012C00070BDC04603002A0003002B004413002019
:1012D00000180042854D00008148000000E100E058
:1012E000381300207C130020BD14000001130000FF
:1012F000C151000005110000C8000020D9110000F4
:1013000070B5064C064E074D2078B047201CA84704
:101310000528F9D0044B984770BDC046C80000208E
:101320009D190000D9110000691B000070B590B034
:101330004B4D2C68201C4B4B98471F2318401E3BDD
:101340008340181C8023484AD0502A68D369002B58
:10135000FCD12368022293432360414D2C68201C5A
:10136000404B98471F2318401E3B8340181C802386
:101370003D4AD0502A68D369002BFCD12368022251
:1013800093432360364B1A68D369002BFCD10121AB
:1013900021608023DB05009300230193FF22684630
:1013A000028100228372C37224206C4621540130D2
:1013B000215425316354013163540A930531635438
:1013C0000131635405932382E37622762277627695
:1013D0001323A3766277E1235B02089390235B03D8
:1013E0000393224B0C93224B0D93224B0E93224BD3
:1013F0000F931B4E214D224C301C291C6A46A047DE
:101400000028F9D1164D2C68201C164B98471F2335
:1014100018401E3B8340181C134B18602A68D36980
:10142000002BFCD122680233134323601548164970
:1014300080229200154B9847094C201C1449012228
:10144000144DA847201C14490022A8473122A15C52
:1014500003230B43A3541148114B984710B070BDA0
:10146000441300208148000000E100E00200100069
:10147000020011000200120002001300000C0042E2
:10148000854D0000381300207C130020BD1400009F
:1014900001130000C151000005110000C800002028
:1014A000D91100000120704708B502480121024B04
:1014B000984708BD44130020055200000023838094
:1014C000C38002815200013A4281016000207047CE
:1014D00008B5024B1B68984708BDC0467C15002024
:1014E00008B50B4800210B4B98470B4A1388013372
:1014F0009BB21380094A1268934207D30022064B1D
:101500001A80074B1B68002B00D0984708BDC046C7
:101510008C150020C5030000D00000208815002095
:101520008015002010B58EB001AA00230021137091
:10153000937093710020138150709172D172117366
:1015400091735173117453619361117713625362F4
:101550001385E023DB0093802923D0540C4B538563
:1015600001235B4293850B4C201C0B490B4B984786
:1015700022687F21D37B8B43FCD1118802330B433C
:101580001380044806490222064B98470EB010BD4E
:101590001BB7FFFF8C150020002C00424D010000FE
:1015A000E1140000E11B0000014B18607047C046C9
:1015B0008015002010B50D4B18600D4C201C00212B
:1015C0000C4B984720680C4B98470C4B1B5C1F2218
:1015D00013401E3A9A40131C094A1360627E10237E
:1015E00013436376236810225A7310BD88150020B8
:1015F0008C150020C50300001501000034EA00002E
:1016000000E100E0034B10211A6811735A7E8A43EF
:101610005A7670478C15002070B58EB02F4B18602D
:1016200001AC002300222370A370A3712381002149
:101630006170A272E272227322746361A3612277E5
:101640002362636223856385A38580239B00A38037
:1016500001256573A573224E301C2249221C224BA2
:101660009847A3881B0A9D402078204B9847291C47
:101670001F4B98471F4B1860301C012149421E4BDD
:10168000984732687F21D37B8B43FCD1118802338A
:101690000B431380124B1A687F21D37B8B43FCD101
:1016A000803353710E4C201C14490022144B984770
:1016B0002068144B9847144B1B5C1F2213401E3AA2
:1016C000111C99400B1C11490B60617E01230B43D7
:1016D000637623685A730EB070BDC0467C15002037
:1016E000A8150020003000424D01000015590000EF
:1016F000ADBD000084150020C5030000D11400001A
:10170000E11B00001501000034EA000000E100E0E8
:1017100038B5431C18D0041C0C4D0D4B1868FA2129
:1017200089000C4B9847011C6143281C0A4B9847C1
:101730002A687F21D37B8B43FCD113717F21D37B1C
:101740008B43FCD14033537138BDC046A8150020EF
:1017500084150020ADBD0000C5030000044B1A68CD
:101760007F21D37B8B43FCD1803353717047C046BC
:10177000A815002008B5034B98470520024B984751
:1017800008BDC0465D1700001117000008B5074BE3
:101790001B78012B09D1064B9847002803D108225A
:1017A000044B5A6101E0044B984708BD0500002036
:1017B000A9140000804400417517000008B50B4BC8
:1017C0001B68002B11D00A4B1B691B070BD4082286
:1017D000074B9A61012802D10430064B9847052037
:1017E000054B984701E0054B984708BDD400002001
:1017F000804400411D1E00001117000075170000F5
:10180000F0B5474680B482B00378CF20012B24D1B5
:10181000144B984701AC0023A370012727700233B3
:1018200063702320211C104B984698470F4D2B1CAA
:10183000803308269E610320211CC0476E61322040
:101840000B4CA047AE610B4B98470B480B4B98478E
:101850000B48A0470B4B1F70002002B004BC904601
:10186000F0BDC046E11D00001D44000000440041E1
:101870001D1E0000ED1100008D170000191600005C
:10188000AC0D0000050000200122014B1A607047DA
:10189000E4000020002070470020704738B5041C89
:1018A0000020144B9847144B984205D1134B1868ED
:1018B0004443134B1C6017E0124B984205D1124B66
:1018C000186844430E4B1C600EE0104B98470022F2
:1018D0000F4B104DA84700220F4B104DA847104B3F
:1018E00098474443064B1C60054A13685B0013602D
:1018F00038BDC0461559000000127A0000000020D3
:10190000E0000020006CDC02080000201DD4000074
:1019100060E3864141C100000038834089C7000070
:1019200005C10000024B1A68501E18607047C0467F
:10193000E000002072B6BFF35F8F0022014B1A70E7
:101940007047C046200000200122034B1A70BFF3ED
:101950005F8F62B67047C0462000002038B50D1C6E
:10196000141CCF2301280DD1074B9847074B9847EC
:10197000074B98470120074B9847A1B2281C064BFC
:1019800098470023181C38BD35190000A514000025
:1019900049190000BD1700006111000010B582B0A8
:1019A0000190194B1B78022B19D1184B9847019CB9
:1019B00017498888CB884A891B1A0989134099429C
:1019C0000AD01349CB889BB252081A400868845445
:1019D00001334A891340CB800E4B984712E00A4BE3
:1019E0001B78012B04D101A801210B4B984709E07A
:1019F000054B1B78002B05D1019B5A2B02D10122EC
:101A0000014B1A7002B010BDA1030020351900006F
:101A100038130020491900004D860000F0B54746F4
:101A200080B482B08046FA2000011C4B98471C4EBF
:101A30001C4D2C1CB047AB88EA889BB2934211D056
:101A4000A3889BB261894A081A402068825C01AF72
:101A50003A7001330B40A380134B9847381C012187
:101A6000124B9847104B9847114B1B68012B03D022
:101A7000104B98470028DDD10D4B1B68012B05D179
:101A800000230B4A13600C4A136002E00123424614
:101A9000137002B004BC9046F0BDC0469D18000013
:101AA000351900003813002049190000498800004A
:101AB000E400002025190000E00000200122014B75
:101AC0001A607047DC00002070B582B01A4B98474E
:101AD0001A4E1B4D2C1CB047AB88EA889BB2934230
:101AE00013D0A3889BB261894A081A402068825C9F
:101AF0006846027001330B40A380124B984701A83F
:101B0000009B03700121104B98470E4B98470F4BD9
:101B10001B68012B03D00E4B98470028DBD10B4BE1
:101B20001B68D020012B05D10023084A1360094A05
:101B30001360002002B070BD9D1800003519000030
:101B4000381300204919000049880000DC000020FB
:101B500025190000E000002008B5024B984701203D
:101B600008BDC0461D1E000008B50220014B984765
:101B700008BDC046BD1700000122014B1A70704716
:101B8000D80000207047C0460022014B1A60704701
:101B9000E000002008B5014B984708BD2D13000058
:101BA00070B582B000226B46DA80094B9847094D28
:101BB000094C0A4E281C6B46991DA047002802D0EC
:101BC000B0470028F6D16B46987902B070BDC04688
:101BD0009D180000E8000020BD50000025190000FD
:101BE000931C9B001950022A04D1027E1023134338
:101BF00003760CE0032A04D1027E202313430376EC
:101C000005E0012393401A1C037E1A43027600204C
:101C10007047C04638B58000144BC5582B689C7B74
:101C20002B7E1C406B7E1C40E30705D5281CAB684F
:101C3000984701232A689373A30705D5281CEB68EE
:101C4000984702232A689373E30605D5281C2B695D
:101C5000984710232A689373A30605D5281C6B693F
:101C600098472B6820229A7338BDC046C4150020BF
:101C700008B50020014B984708BDC046151C000060
:101C800008B50120014B984708BDC046151C00004F
:101C900008B50220014B984708BDC046151C00003E
:101CA00030B500230021438201700F2242701824B6
:101CB0008470838281750A32C27511320276183AB5
:101CC0000285104AC26201220286428622253332F0
:101CD000855483638387C3871032815401328154D2
:101CE00001328154023283520232835202328352D1
:101CF000054A1E3D15705170548001211171D38029
:101D0000026430BD0C000020D015002010B582B058
:101D1000011C1231031C1433009301230193002290
:101D20000023024CA04702B010BDC046917E0000C7
:101D300070B582B0041C0E1C1D1C6B46D91D0A70A8
:101D4000B08A0122094B9847031E0CD1084B1B781F
:101D50000020002B07D0B18A201C064B9847031E99
:101D600001D100222A7002B070BDC046C57E0000BD
:101D70001C0100206580000070B5144CA544051CB2
:101D80000C1C1E1C01A8111C114A124B98474A2317
:101D9000E25A01AB5B8800209A4213D101AB1B7A57
:101DA000002B0BD001220C4B1A70A18A281C0B4B64
:101DB0009847031E06D10022327003E00022064B32
:101DC0001A70002084239B009D4470BDF0FDFFFF2E
:101DD0000A020000EBD700001C0100206580000013
:101DE00010B50020084B9847084CFA218900A047FD
:101DF000074B1860FA218900A047064B186005229E
:101E0000054B1A6010BDC04615590000ADBD00005D
:101E1000140000201000002010E000E030B5084B56
:101E20001C68084A00258021490206E0002C04D0E5
:101E30005460956013680B42FCD00138F6D230BD77
:101E40001400002010E000E008B5034B1B68002BD5
:101E500000D0984708BDC0462001002038B50028B2
:101E600006D0041C034D0120A847013C002CFAD1E8
:101E700038BDC0461D1E0000F8B5084C80277F0500
:101E800067618026360566616420054DA847A76115
:101E90000A20A847A6610A20A847F8BD00440041CF
:101EA0005D1E000070B582B00023134A136001ACC0
:101EB00001256570A37025701B20211C0F4EB047B3
:101EC0001C20211CB0472820211CB0470C4B1B684C
:101ED0001D4203D00A4B1B689B0701D4094B98474E
:101EE000094B98470122094B1A70BFF35F8F62B606
:101EF000002002B070BDC046200100201D4400003B
:101F000010E000E0E11D0000791E0000200000202C
:101F100010B584B00E4B186001AC201C0D4B9847D7
:101F20002923019300236360013323720133E37299
:101F30000920211C084B9847084809210022084B1A
:101F4000984709200021074B984704B010BDC046B0
:101F50002001002091430000A5430000491E00001D
:101F6000394200006542000008B5002804D009206D
:101F70000021044B984703E009200021024B9847B9
:101F800008BDC046654200008542000030B591B0F2
:101F90002F4C0E23237000236370A37001A901222C
:101FA0004A708B700A700E202A4B98472378D90903
:101FB0000022002904D15A09D20127498C466244E3
:101FC0001F210B401E39081C9840906102AA117015
:101FD000002353609360C0208003D0601374537457
:101FE0009174D17413752331535409930A931B4B85
:101FF00093621B4BD36201235B421363194B536300
:10200000194B936119481A491A4B984700281AD15D
:10201000164D2C68201C184B98471F2318401E3B58
:102020008340181C154B18602A68D369002BFCD11B
:102030002268023313432360114B98470120114B50
:102040009847002000E0FA2040B211B030BDC046F1
:10205000D81500201D4400000044004102000C007F
:1020600002000D0002000F00001BB700DC1500206D
:10207000001000420D4900008148000000E100E02E
:10208000791E00005D1E0000F0B55F4656464D46C5
:102090004446F0B485B0032869D10E684D680C89B8
:1020A000002202ABDA71002E08D0002D5DD1012391
:1020B00099460023019302ABDD1D05E000239946FC
:1020C0000133019302ABDE1D2D482E4901222E4B18
:1020D0009847002C3CD02A4B9B46012704229A4665
:1020E0000423984649464B425941894630785B461D
:1020F0001B68197E3942FCD0197E3942FCD09862A7
:10210000197E1142FCD0514689798C46197E1142C4
:10211000FCD0598B0020114205D0598B4046014319
:1021200089B259831E206146012903D1996AC905E4
:10213000C90D01E0996AC9B20028E7D12970013CB4
:10214000A4B24D44019B59424B41F618002CCDD10D
:102150000B4B196802220B7E1342FCD00848094938
:102160000022094B9847002002E0FA2000E0FF20FF
:1021700040B205B03CBC90469946A246AB46F0BD85
:10218000DC150020D8150020E14A000038B50B4DC1
:102190002C68201C0A4B98471F2318401E3B834085
:1021A000181C8023074AD0502A68D369002BFCD121
:1021B0002368022293432360002038BDDC150020F1
:1021C0008148000000E100E0002A06D082180B7868
:1021D0000370013001319042F9D17047002A04D0D8
:1021E0008218017001309042FBD17047031C0278C5
:1021F000002A07D00020013080B201331A78002A6B
:10220000F9D100E000207047024A13780133DBB2B5
:10221000137070472C0100207047C04600B583B092
:102220000120094B9847094801A9094B9847002804
:1022300006D10221019B194301910448054B98479F
:1022400040B203B000BDC046691F0000701000001E
:10225000BD300000C930000008B50F4B1B78002BC3
:1022600011D10E4B1B78032B03D00C4B1B78042B86
:1022700009D10B4B984700280BD10A480A490B4B50
:102280009847002805D1044A13780133DBB2137054
:10229000002040B208BDC04648010020380100209F
:1022A000AD2C00007410000078560000C93000000A
:1022B00000B583B0174B1B78002B04D0154A137858
:1022C000013BDBB21370134B1B780020002B1ED197
:1022D000114B1B78032B03D00F4B1B78042B16D10B
:1022E000002301930D480E490E4B984700280ED14C
:1022F000013001A90C4B9847002808D101998B07A0
:1023000005D50223994301910130064B984740B20D
:1023100003B000BD48010020380100207410000007
:1023200021430000C9300000BD30000008B5002383
:10233000084A1360084A1360084A1370084A137069
:10234000084A13700848094B9847094A094B1A6014
:10235000002008BD280100203C0100204801002089
:10236000380100202C01002009220000111F00006C
:102370001922000030010020F0B5574680B488B023
:1023800082460C1C019200930EAB80CB1E8810ABD2
:102390001D887F220A4007AB5A70187008225A80A5
:1023A000002F05D05A889219AA1892B25A8006E0D6
:1023B00007AB5A8800998C46624492B25A804C4BC3
:1023C0009847002800D08EE00023059302AAD3800E
:1023D0000493049B52461A430492049B24021C4318
:1023E000049407AB5B88049A1B0413430493049979
:1023F0004048414B9847002875D100230493049A24
:1024000002331343049304993C483B4B98470028FC
:1024100069D10022059202ABDA8006331B889BB299
:10242000374A93421CD8374C344804A9A0470028A7
:1024300016D1049B9B0708D4334805A9314B984714
:1024400000280DD0002305930AE002ABDA880132A0
:1024500092B2DA8006331B889BB2294A9342E3D9B1
:10246000059B002B3ED0059B069307A94B889BB28A
:102470004B8006980822254B9847002833D1069BAD
:1024800008330693019B002B0BD00698191C009C67
:10249000221C1E4B9847002825D1069BA446634466
:1024A0000693002F0ED0069B009AAD1AED180695E4
:1024B0000698391C321C154B9847002813D1069BEF
:1024C000F3180693059B9B000493049A022313437D
:1024D000049304990E48084B9847002803D10D4BEC
:1024E000984700E0FD2040B208B004BC9246F0BD21
:1024F000592200008C100000C93000007810000044
:10250000E7030000BD300000000415004131000069
:102510006C100000B1220000F0B557464E4645460B
:10252000E0B484B0644B99469846644DB7E04346A6
:102530001B78013BDBB242461370614EA84700286E
:10254000FCD1604801A9B0470028F7D1019BDB0707
:1025500000D49EE05C4B9847012301999943019177
:1025600058485A4B98470028E8D10022584B1A7017
:10257000019B9B041B0D9A46E0D000230393554812
:1025800003A94F4B9847041E03D001204E4B984798
:1025900082E002AF0398391C04224F4B9847041C79
:1025A0007B889BB27B80002803D00120464B984754
:1025B00072E002AB5B889BB29A450AD002AB5B88A3
:1025C0005246D31A042B04DD01203F4B9847FA24CE
:1025D00062E002AB1B78012B0DD1404B1B68002B36
:1025E00051D002AA5078C0B25188083989B2039AF2
:1025F0000832984747E002AB1B78022B0DD1384BCD
:102600001B68002B3FD002AA5078C0B2518808390D
:1026100089B2039A0832984735E002AB1B78042B45
:102620000DD1304B1B68002B2DD002AA5078C0B2C0
:102630005188083989B2039A0832984723E002ABDF
:102640001B78062B0DD1284B1B68002B1BD002AA30
:102650005078C0B25188083989B2039A0832984735
:1026600011E002AB1B78FA24072B15D11F4B1B6816
:10267000002B08D002AA5078C0B25188083989B21C
:10268000039A08329847124B1B78002B01D1184B44
:102690009847184B9847041C002C00D04EE74B4637
:1026A0001B78002B00D042E7002004B01CBC9046F1
:1026B0009946A246F0BDC0462C01002059220000D8
:1026C000BD30000070100000691F0000C93000001C
:1026D0004001002084100000D530000028010020B7
:1026E0003C0100204401002024010020340100208E
:1026F0001D220000B1220000F0B54F464646C0B48E
:1027000083B0061C0C1C151C1F1C002803D00029BC
:1027100001D0002A07D1002F34D00122204B1A709B
:10272000204B984735E020486946204B98470028C1
:102730002FD1009B98461E4801A91C4B98470028A2
:1027400027D143469B041B0D98469D421CD8019BF4
:102750009E421BD37219914643449A4218D8301CAA
:10276000211C2A1C134B9847002812D1019B43447B
:10277000994501D0002F0CD00122094B1A70094B4A
:10278000984706E0F42004E0F42002E0F42000E0A2
:10279000F42040B203B00CBC90469946F0BDC04650
:1027A000400100201D22000070100000BD3000001C
:1027B00084100000D530000007281BD880000F4B84
:1027C0001B589F460E4B1960002014E00D4B1960FA
:1027D000002010E00C4B196000200CE00B4B19603E
:1027E000002008E00A4B1960002004E0094B196042
:1027F000002000E0F42040B27047C04638EA0000F4
:102800003C0100202801002044010020300100206C
:10281000240100203401002030B59DB0141C2C2868
:1028200011D1101C01A904220023854CA0470028C7
:1028300000D003E1834B1B68002B00D1FEE02C305D
:1028400001A99847FAE01B2811D1101C01A9082200
:1028500000237B4CA047002800D0EFE0794B1B6899
:10286000002B00D1EAE01B3001A99847E6E00628DA
:1028700011D1101C01A930220123714CA04700285E
:1028800000D0DBE06F4B1B68002B00D1D6E0063098
:1028900001A99847D2E00E2800D1CFE0322811D10B
:1028A000101C01A910220023654CA047002800D06D
:1028B000C4E0644B1B68002B00D1BFE0323001A99B
:1028C0009847BBE02F2816D101A8002164225E4B57
:1028D0009847201C01A964220023594CA0470028D6
:1028E00000D0ABE0574B1B68002B00D1A6E02F3087
:1028F00001A99847A2E0342811D1101C01A9042293
:1029000000234F4CA047002800D097E04D4B1B6898
:10291000002B00D192E03430002198478EE011283E
:1029200017D10022494B1A70201C01A90432002340
:10293000434CA047002800D080E001AB1A78444BFC
:102940001A70404B1B68002B78D0113001A99847B2
:1029500074E013280FD1101C01A92C220023384C3D
:10296000A04700286AD1374B1B68002B66D0133074
:1029700001A9984762E004280FD1101C1AA904226B
:1029800000232F4CA047002858D12E4B1B68002B4A
:1029900054D004301AA9984750E065280FD1101C74
:1029A0001AA904220023264CA047002846D1254B13
:1029B0001B68002B42D065301AA998473EE00928D1
:1029C0000FD1101C01A9642201231D4CA04700282F
:1029D00034D11C4B1B68002B30D0093001A998471B
:1029E0002CE02A280FD1101C01A904220123144C29
:1029F000A047002822D1134B1B68002B1ED02A3081
:102A000001A998471AE0202818D1101C01A9082212
:102A100000230B4DA847002810D1201C083001AB23
:102A20009A8801990123064CA047002806D1054B3E
:102A30001B68002B02D0203001A998471DB030BD83
:102A4000F92600004C010020DD210000500100208B
:102A50005101002010B58AB001226B46DA710028BE
:102A60001DD00268104B1A600022104B1A706B4682
:102A7000D81D0F4B9847041E12D100200D4B9847CC
:102A8000041E08D101200C490C4B984702A80C4B9E
:102A90009847041C04E000200A4B984700E0F42407
:102AA00060B20AB010BDC0464C01002050010020A9
:102AB000593200002D23000019280000B92700001A
:102AC000AD310000BD32000008B5014B984708BD8C
:102AD00019250000F0B54F464646C0B4A3B0059096
:102AE0000C1C151C1F1C2AAB1B8899462BAB1B7892
:102AF0009846012A25D0002F00D186E0022A20D155
:102B0000381C504B984740281BD13B781A1C303A50
:102B1000362A7CD80A3A062A7BD9473B192B7AD920
:102B20007A1C381C40301378191C3039362974D877
:102B30000A39062973D9473B192B72D901328242CF
:102B4000F1D1631E1F2B6ED84B460D2B01D9FF2BE5
:102B50006BD107AE5A2002AB9C4660440599221CFB
:102B6000394B9847341940340023A37144334A4603
:102B7000F25243465A1E93416722B3544123F554FF
:102B8000032D1ED13B78013BDBB207AA1370032B48
:102B90004DD87A78511E07AB59701023111C9943F8
:102BA000F4200B2948D1B91CDE3802AB9C466044A6
:102BB000254B98477B7807AA9446634400229A7075
:102BC00018E0022D0CD1381C1E4B9847431E9BB2B7
:102BD0003F2B2ED8421C07A8391C1B4B984709E0F5
:102BE000042D05D107A8391C3E22174B984701E058
:102BF000012D20D10023009301930293012028216D
:102C000007AA6C33114CA04716E0F42014E0F4201E
:102C100012E0F42010E0F4200EE0F4200CE0F420A8
:102C20000AE0F42008E0F42006E0F42004E0F420B8
:102C300002E0F42000E0F42040B223B00CBC904647
:102C40009946F0BDED210000C92100007923000064
:102C500010B582B004AC2488009400240194024C86
:102C6000A04702B010BDC046D52A00000020704722
:102C7000F0B583B0041CA5256D010A4E0A4F281C2F
:102C8000211CB047002C09D000230193281C01A966
:102C9000B8470028F3D1019B9C42F0D1002003B03B
:102CA000F0BDC046C9300000BD300000F0B55F4641
:102CB00056464546E0B484B00120384B9847012081
:102CC00003A9374B9847019000285ED10024354B6B
:102CD0009B46324B9A46344B98460221039B19433C
:102CE0000120D8470120D0474346186802A92C4B41
:102CF0009847002802D1029B002B0ED12A4D0E23AB
:102D00002B600120254B9847286802A9244B98473F
:102D100000280DD1029B002B0AD0029B5B0727D411
:102D20000134201C0321214B984700290DD025E0B8
:102D30001D4D13232B600120184B9847286802A9CA
:102D4000174B98470028E8D016E0144F164E144D44
:102D50000220B847306802A9A847029B5B0707D446
:102D60000134201C0321114B98470029F0D005E0C5
:102D7000029B5B07B1D508E0019006E00221039BAE
:102D800019430120074B9847F2E76B460420185679
:102D900004B01CBC90469A46A346F0BD5D1E0000E0
:102DA000BD300000C93000001C000020B9BE00008A
:102DB00000B583B0164801A9164B984700281CD1CE
:102DC00080214900019B194301911148124B9847FA
:102DD000002814D1D020400101A90E4B98470028AB
:102DE0000FD180214902019B19430191D02040015C
:102DF000094B9847002806D106E0FA2004E0FA20A3
:102E000002E0FA2000E0FA2040B203B000BDC04664
:102E100008140000BD300000C930000010B582B0B9
:102E2000274B1C68002C46D180204001191C254BE3
:102E30009847002803D00022214B1A603DE0224829
:102E400001A9204B9847002803D000221C4B1A6090
:102E500033E01B4B1B681D4A934206D1019B012B9B
:102E600021D01B4A164B1A601DE01A4A93420CD11E
:102E7000019B032B17D0042B03D1174A104B1A6068
:102E800011E0164A0E4B1A600DE0154A93420AD122
:102E9000EC2080030A490B4B9847002803D00022FE
:102EA000074B1A6009E0064A0E4B11680B40A0213F
:102EB000C9020B431360024B1C68201C02B010BDFA
:102EC00054010020BD300000F4130000A0021000E7
:102ED000A1021000B0021000B1021000B2021000F6
:102EE000F0001000FFFFF0FFF8B5071C244D254C43
:102EF000254E281CA047002802DB0120B047F8E738
:102F00002248204B9847C30709D41F4E204C1D4D23
:102F10000120B047201CA8471E4B9842F8D1022F31
:102F200009D11D481D491E4CA0471E488021490358
:102F3000A04700270EE0032F08D117481749184C67
:102F4000A04718480021A047002703E0043F7B4228
:102F50005F41FF01144B98470005000DE8239B00DB
:102F6000984204D102203843104B984702E0381CA5
:102F70000E4B984706480E49094B98470020F8BD6C
:102F800014100000B13000005D1E0000BC070200FC
:102F90000C000C009ED0AD10AC0702007DD51C3C8F
:102FA000C93000008C1000001D2E0000712C0000A4
:102FB000612F52EF70B582B0154B0193154B009302
:102FC000023801280CD8144B0193144B009307E0EE
:102FD0000220B0470198A847013C002C05D112E01F
:102FE0000124644200200E4E0E4D009B8342EFD11F
:102FF000009A0020074B9A4206D1054800210A4B4F
:103000009847002000E0FB2040B202B070BDC046EF
:103010008C10000036265302AC070200C3C15DD7F6
:103020005D1E0000B1300000C9300000F0B583B073
:1030300000230193A0246401201C01A9134B98478D
:103040001349019B19400191201C124B9847031E04
:1030500018D10A250D4E0F4F201C01A9B04700289A
:103060000DD101994B050CD5094B19400191201C3C
:10307000B847013DEDB2002DEED1031C02E0031C68
:1030800000E0002358B203B0F0BDC046BD300000E0
:10309000FFFBFFFFC930000008B5014B984708BD92
:1030A0008D1F000008B5014B984708BD8D21000019
:1030B00008B5014B984708BDC136000008B5014B63
:1030C000984708BDD536000008B5014B984708BDA4
:1030D000ED360000F0B54F464646C0B483B0061C3E
:1030E0008946151C144B1B88083B9BB201931C1C82
:1030F0009A4207D80027391C4944AAB2301C0F4B0A
:10310000984712E0019BD51A00270C4B98464B4676
:10311000D919301C019AC047002806D13F19361929
:103120002B1BAC42E7D21D1CF1E740B203B00CBC34
:1031300090469946F0BDC046180000209D3700001B
:10314000F0B54F464646C0B483B0061C8946151CF0
:10315000144B1B88083B9BB201931C1C9A4207D856
:103160000027391C4944AAB2301C0F4B984712E083
:10317000019BD51A00270C4B98464B46D919301C99
:10318000019AC047002806D13F1936192B1BAC42C3
:10319000E7D21D1CF1E740B203B00CBC9046994643
:1031A000F0BDC0461800002005380000F0B583B01F
:1031B000041C00230193214801A9214B9847051CB9
:1031C000204B019A9A4204D11F4801A91C4B9847F1
:1031D000051C019A110C8BB2180AE0711B090F260D
:1031E000334023723140617293B2190A21711B0975
:1031F000334063713240A271144B984720602379A9
:103200001A02A3793340134360790001FF27384045
:103210000343E0790002627A16400643217A0901ED
:103220003940321C0A430A498A4200D9F325094A27
:10323000934200D8F32568B203B0F0BDAC0702009A
:10324000BD300000C3C15DD7481000001D2E000036
:10325000301300002F13000038B5002805D0057882
:103260006B1E032B02D9012500E0012500200D4B28
:103270009847041E14D10C4B9847281C0B4B9847B9
:10328000041E0BD1281C0A4B9847041E06D1023D90
:10329000012D05D9074B9847041E01D0064B9847CE
:1032A00060B238BD9930000005370000E92E0000FB
:1032B000B52F0000B12D0000A530000010B5084B5F
:1032C0009847041E0AD10020064B9847041E05D1DA
:1032D000054B9847041E01D1044B984760B210BDBE
:1032E0002D300000AD400000A5300000B1360000D8
:1032F00000B585B001AB0022019202901981032034
:10330000191C024B984705B000BDC046892000003B
:10331000F0B583B0061ECF2E04D0031C3B33DBB2C6
:10332000012B07D86B46D81D0121184B9847002365
:10333000002828D10B246B46DD1D144F281C0121C9
:10334000B84700281AD12B78B34205D0013CE4B22B
:10335000002CF3D10B3400E00B246B46DD1D0B4E2B
:10336000281C0121B04700280AD12B78002B09D056
:10337000013CE4B2002CF3D1012304E0002302E07D
:10338000002300E0012358B203B0F0BDF132000089
:10339000F0B55F4656464D464446F0B485B0824689
:1033A0008946934600239846284F80239B019945E0
:1033B00004D84B466A46D380D68801E08026B60101
:1033C0000A2402ABDD1C281C0121B84700282ED19D
:1033D0002B781B090F2B05D0013CA4B223B201337B
:1033E000F1D12BE024B2002C23DDB6B2434618B253
:1033F0005044311C154B984700281CD15B46002BCC
:1034000009D1134B1B78002B05D103A802210F4BC8
:103410009847002811D14346F3189BB298464B4673
:103420009E1BB3B29946002BBFD1012006E00020BD
:1034300004E0002002E0002000E0002040B205B0DF
:103440003CBC90469946A246AB46F0BDF132000026
:103450005801002000B585B001AB01900022029216
:1034600019810320191C024B984705B000BDC046C6
:103470008920000070B584B008AC257801AC2070BC
:103480003F30C4B20E2C00D985E0A0004A4C205831
:10349000874601AB0A0C5A700A0A9A70D970052146
:1034A00081E00B0ADBB2002D02D101AA537004E0C7
:1034B00080225242134301AA537001AB997000223B
:1034C000DA7005216FE001AB00225A709A70DA7051
:1034D000052168E001AB00225A709A70DA7005216C
:1034E00061E001ABFF225A709A70DA7005215AE050
:1034F00001AA080C5070080A9070D170190A117155
:10350000537107214FE001AA080C5070080A90700F
:10351000D170190C1171190A51719371082142E08F
:103520000B0ADBB2002D02D101A8437004E0802019
:103530004042034301A8437001AB9970110ED9704A
:10354000110C1971110A59719A7108212BE001AB04
:10355000080C5870080A9870D970110E1971110C66
:103560005971110A9971DA7109211CE010785B0018
:103570004340E35C0132AA42F8D15B0001AA9355B3
:1035800001E00139C9B289B201A80C4B9847434206
:103590005841C0B20CE000200AE04E1E01AA951965
:1035A0007F23074CE2E7074B1B78002BF5D0E8E7B9
:1035B00040B204B070BDC04658EA00005534000067
:1035C00094EA00005801002030B583B0031C0A1CA7
:1035D000302802D90021C92401E00121C32400912F
:1035E000201C191C04230B4DA847002301280DD1D2
:1035F000201C094B98470123012807D00023009382
:10360000CF2000210022034CA047002358B203B072
:1036100030BDC0467534000011330000F0B585B0F0
:10362000031C0D1CFF2802D90026CA2401E0012634
:10363000C4240096201C191C00220423194FB847EB
:10364000002301282AD1201C174B9847012808D0B5
:1036500000230093CF2000210022124CA04700231A
:103660001CE003A80421321C104B9847012808D005
:1036700000230093CF20002100220A4CA047002302
:103680000CE003AA5378190293781B040B431178BA
:103690000B43D278120613432B60012358B205B0B6
:1036A000F0BDC046753400001133000091330000B6
:1036B0000022024B1A7000207047C04658010020BB
:1036C00000B583B001A9024B9847019803B000BD33
:1036D0001D36000008B5044B98470023012800D090
:1036E000FA3358B208BDC0461D36000008B5044B79
:1036F00098470023012800D0FA3358B208BDC046CD
:10370000C935000010B582B0002300931D4A137024
:103710001D4869461D4B9847002808D10122194BC6
:103720001A7019486946194B9847002827D0154B3D
:103730001B78002B0DD17C33009999432C3B194306
:1037400000911148124B9847002818D001220D4BC8
:103750001A708020400101A90C4B984700280DD019
:10376000094C201C0B4B98477023011C9943203BAC
:103770001943201C084B9847002000E0FA2040B273
:1037800002B010BD5801002024E800001D360000E2
:10379000C9350000C1360000ED36000070B582B0BA
:1037A000031C0E1C141C00220092C820191C231C90
:1037B000114DA84701281AD1C730104B984701284E
:1037C00007D000230093CF20002100220A4CA047FD
:1037D0000DE0301C211C0022094B984700230128D2
:1037E00006D00093CF2000210022034CA047FA23EB
:1037F00058B202B070BDC0467534000011330000ED
:1038000091330000F0B54F464646C0B487B0031C64
:103810008946151C00220092C720191C2B1C314C14
:10382000A047012857D1C6302F4B9847012807D011
:1038300000230093CF20002100222A4CA0474AE019
:10384000002205AB1A80002780239B0198466A4618
:10385000D381264E2C1C454501D96B46DC89A4B288
:10386000002F04D10323454506D9023B04E0002381
:103870004246AA425B4102330B2002AA94466044AE
:1038800010225242134303700121B047002817D180
:1038900038B24844211C154B9847002810D1144BCE
:1038A0001B78002B05D105A80221104B9847002852
:1038B00006D1E719BFB22D1BADB2002DCAD108E069
:1038C00000230093CF2000210022064CA0470020B7
:1038D00002E0002000E0FA2040B207B00CBC9046A5
:1038E0009946F0BD753400001133000055340000D6
:1038F00058010020F0B55F4656464D464446F0B4A8
:1039000083B000900E1C019298460CAB1C88002CD2
:1039100045D0030125495B58002B40D00301CB184B
:103920009B889BB2002B3AD00301CB1808339B78BD
:10393000012B34D1F48007018A46BA448B46C14634
:10394000B84653469B88E31A1BB2002B05DD174B84
:1039500043449D88ADB2002301E0251C01235A4653
:103960004146895848462A1C114FB847002816D1AD
:103970000E4B4246D3583360B580F3885B1BF3800F
:103980000C4B1B68002B05D00A4B1B680098019953
:10399000321C9847641BA4B2A944002CD1D103B0B7
:1039A0003CBC90469946A246AB46F0BD1C16002092
:1039B000F9260000CC160020F0B557464E46454685
:1039C000E0B498B00D1C141C41281AD1101C07A992
:1039D00004220023AB4CA047002800D04BE107ABEA
:1039E0005A7803AB1A70A84B1B68002B00D142E138
:1039F000A54B1B6807AA00201056012103AA98476F
:103A000039E142281AD1101C07A9042200239D4C39
:103A1000A047002800D02EE107AB5A7803AB1A70FC
:103A2000994B1B68002B00D125E1974B1B6807AA17
:103A300000201056022103AA98471CE143283FD1D9
:103A4000101C03A90C2200238E4CA047002800D094
:103A500011E103AB597A4BB2002B1ADB1A018B48E8
:103A600082180020D0720130907289480288013299
:103A700092B20280028892B2002A03D102880132F7
:103A800092B20280824A128892B21B017F48C31808
:103A9000DA8007AB197002229A8003AA5188D98074
:103AA000049A0992784B1B68002B00D1E3E0764B17
:103AB0001B6803AA08201056042107AA9847DAE0D9
:103AC000442801D04B2825D1201C07A9042200231B
:103AD0006C4CA047002800D0CDE007AB187803AAB3
:103AE00010705B785370002B08D143B207AA52883C
:103AF000083A92B21B016549CB181A81624B1B68C8
:103B0000002B00D1B7E0604B1B6840B2052103AA2F
:103B10009847B0E04A2813D1101C07A9442200237B
:103B2000584CA047002800D0A5E01799594B1B68B6
:103B3000002B00D19FE0574B1B6807A898479AE0DD
:103B4000462806D0482807D04D2851D106239A464A
:103B500004E006239A4601E009239A46201C03A9A3
:103B600010220023474FB847002800D083E003A964
:103B7000087BCB8942B21201444FBA180026167353
:103B80000E89B0464E89B14607AF4E887E810499B2
:103B90000A91D28892B29A4221D143461BB2002B9D
:103BA0000DDD43461BB2AB4209DA40B2231C4B4445
:103BB00042460092391C5246374CA0475BE007ABA7
:103BC00042469A80002307932F4B1B68002B52D04C
:103BD0002D4B1B6840B2514607AA98474BE0102D69
:103BE00049D90020002100220123264CA04742E0B1
:103BF000452805D0472805D007254C2803D023E0C9
:103C0000072500E00825201C07A9082200231D4CD9
:103C1000A04700282FD107AB18789A88598803ABA2
:103C2000198043B21B011949CB18DB889BB2934220
:103C300021D1154B1B68002B1DD0134B1B6840B2C4
:103C4000291C03AA984716E0522814D1101C07A972
:103C5000142201230B4CA04700280CD10F4B089ACB
:103C60001A601B68002B06D00C4B1C6807AB099927
:103C70001A7C0798A04718B01CBC90469946A246EB
:103C8000F0BDC046F9260000CC1600201C1600200E
:103C90005A010020D4160020F5380000D01600206C
:103CA00008B50A4B1B78002B0ED109480021B02221
:103CB000084B984702200849084B98470122034BBC
:103CC0001A700022064B1A8008BDC0465901002018
:103CD0001C160020DD210000B9390000B9270000C2
:103CE0005A010020024B1860024B19607047C04611
:103CF000CC160020D416002070B586B0FF24022810
:103D000056D1012947D00930F83C022945D0F83472
:103D10004EE0251C2301CB1808339B78002B34D1AF
:103D20002001254BC018161C00211022234B984758
:103D30002B01214AD31801229A72214A1388013398
:103D40009BB2138013889BB2002B03D113880133DD
:103D50009BB213801A4B1A8892B22B011649CB18CA
:103D6000DA80E4B2F30723D505AA14702D014D19AA
:103D70002123EB7200230093019302930220502130
:103D80000433104DA84713E00B490134E4B28442D8
:103D9000BFD3FF240CE007200024251C2301064983
:103DA000CB1808339B78002BEED120014018BAE7DE
:103DB00060B206B070BDC0461C160020DD210000B8
:103DC0005A0100207923000070B588B0041E30DB52
:103DD000002930D003011C48C31808339B78012BFD
:103DE0002BD1002A2BD02301C3180833DB784426BB
:103DF000DB0705D52301C318DA7A05AB5A720736FB
:103E000005AD2C72281C0822104B984724010E4B3C
:103E10001C19E3886B810023009301930293022015
:103E2000311C2A1C0C330A4CA047002808D0F7206C
:103E300006E0FA2004E0FA2002E0FA2000E0FA208E
:103E400040B208B070BDC0461C160020C921000059
:103E50007923000030B589B00C1C002835DB00291F
:103E600035D0AF23DB009A4233D803011C49CB186D
:103E700008339B78012B2ED104A908704A800301D6
:103E8000174DEB18DB888B815025062800DD0C3D93
:103E900003011349CB180833DB784521DB0705D52F
:103EA00000010F4B18180589ADB207318023194363
:103EB000009401920295022004AA703B094CA0478D
:103EC0000023002808D0084B06E0084B04E0074B0D
:103ED00002E0064B00E0054B18B209B030BDC04609
:103EE0001C16002079230000F2FF0000FAFF0000FA
:103EF00030B587B0002836DB002936D0002A36D00E
:103F000004011E4D2C190834A478012C31D1040170
:103F1000615129198A80083109790022002929D1A3
:103F20002A19012111730832D2784531D20700D500
:103F30000731002B02D1013B049300E0049304AA53
:103F4000107100010D4B1818C388D3800023009313
:103F50000193029302200833094CA0470022002855
:103F600008D0084A06E0084A04E0074A02E0064A88
:103F700000E0054A10B207B030BDC0461C16002054
:103F800079230000F2FF0000FAFF000030B587B08F
:103F9000041E29DB0301174AD31808339B78012B31
:103FA00024D105AA107003011249CB18D988518079
:103FB00000219972D980DB7A4931DB0700D50531C0
:103FC0000023009301930293022005AA04330A4DB3
:103FD000A847051E00D0F725240106482018002117
:103FE0001022064B984702E0FA2500E0FA2568B255
:103FF00007B030BD1C16002079230000DD21000031
:10400000F0B583B0002301930024431C471D002614
:10401000181C5D1E2A78BB4219D02E2A1BD0002AFC
:104020001CD0111C3039092913D8B100711849006E
:1040300030398A18D6B20133EAE70134042CE4D1CE
:1040400001A869460422084B9847019809E000201E
:1040500007E0002005E06B46E654EEE76B46E654C9
:10406000EBE703B0F0BDC046C921000010B584B035
:10407000041C0C4B9847C3B2402B0FD8FF231840A9
:10408000431C00220092019202920220CA21221CAB
:10409000054CA047002802D0F72000E0FA2040B2EB
:1040A00004B010BDED2100007923000070B582B08E
:1040B000041C294B98470005000D0025274B98420A
:1040C00047D9274801A9274B9847051E41D12649C2
:1040D000019B1940254B194301912148244B9847D6
:1040E000002C16D023480021214CA0472248AB21A8
:1040F000A04722480121A04721480021A04721488C
:104100008121A047204E214C301CA0470128FBD123
:1041100015E018480021164CA0471748B921A047C0
:1041200016480121A04716480021A04715488121C3
:10413000A047154E154C301CA0470128FBD10A4959
:10414000019B194080235B02194301910448084BED
:10415000984768B202B070BD1D2E00009F0300009A
:1041600010140000BD300000FF8F88F8001011010E
:10417000C9300000080201000C0201001402010015
:104180001C0201000402010018020100B13000000D
:104190000C4B1B68002B10D1EFF31083002B09D1BF
:1041A00072B6BFF35F8F0022074B1A700132074BC4
:1041B0001A7002E00022054B1A70024A136801339C
:1041C000136070475C010020200000206001002087
:1041D000084B1A68013A1A601B68002B09D1064B7C
:1041E0001B78002B05D00122044B1A70BFF35F8FA0
:1041F00062B670475C0100206001002020000020B2
:10420000F0B583B001AC012565700027A77025705B
:104210001720211C064EB04780221204054B9A61DC
:10422000277065703720211CB04703B0F0BDC04631
:104230001D440000004400411723002A0DD18B00CB
:10424000074A9B58002B03D189008850002304E0C3
:10425000834201D01D2300E00023181C7047C04694
:10426000DC1600201723002907D100221F2800D8C0
:10427000034A01238340D3600023181C7047C046C3
:10428000001800401723002907D100221F2800D85A
:10429000034A0123834093600023181C7047C046E3
:1042A0000018004070B50022154B1A7000231F251E
:1042B000144E134C1F2B19D90FE0002100E01249B6
:1042C0000A619B009B59002B00D09847237801334B
:1042D000DBB223700F2BEDD911E0291C194001220C
:1042E0008A40002109691142E7D1EFE7291C1940F2
:1042F00001228A40044909691142E0D1E6E770BD14
:10430000D8160020DC16002000180040044A11785E
:1043100002230B43137053785BB2002BFBDB704717
:104320000018004000B583B0124A916940230B4346
:10433000936101A900230B7005200F4B98470520BE
:104340000E4B98470E4A117801230B431370537894
:104350005BB2002BFBDB0B4B191C4031002204C36A
:104360008B42FCD11022084B1A60084B984703B0CF
:1043700000BDC046000400402D5A0000A1590000B5
:1043800000180040DC16002000E100E00D430000B2
:10439000002303604360012202724272837202337F
:1043A000C3727047F0B583B0051C0C1C01A9002333
:1043B0004B70CB7023790B70237A8B702078154B60
:1043C000984700261F2D00D8134E07222A4092003E
:1043D000E07AA37A002B01D008231843EB089B0056
:1043E000F318996990400F279740B9430A1C02437C
:1043F0009A61637A002B06D073690122AA40151CCA
:104400001D43756104E073690122AA4093437361FF
:1044100003B0F0BD255B00000018004000B583B07C
:1044200001AB80221A700A785A704A789A708A789A
:10443000DA70191C014B984703B000BD255B0000E2
:1044400010B54908402481420CD30023091A0133D6
:104450009BB28842FAD9013B9BB24024FF2B01D882
:1044600013800024201C10BDF0B55F4656464D4613
:104470004446F0B489B01C1C12AB1B78061C5E438A
:1044800040258E4200D9C7E0251C07920C1C021C57
:10449000002D51D1181C00210023634DA8478346ED
:1044A000261C0027002300240293039400220023EB
:1044B0003F2020218C461F3900960197202464421A
:1044C000041903D40D1CA540A84604E06446241A30
:1044D0000D1CE540A8460C1C8440A146141C1D1C64
:1044E000A4185D41221C2B1C5E4647463E4203D069
:1044F0000E1C2643321C2B1C019C9C4210D802D15E
:10450000009C94420CD8009C019D121BAB414D466F
:10451000029E039F35433C1C464634430295039458
:104520000138CBD20022012302980399121A8B4141
:10453000110C1B0419436CE00021012D69D1610F9E
:104540000F1CE1008846181C00210023364CA047B0
:10455000041C0D1C00239C4620339B460126634609
:104560000593B9466B461B7D069300239C460020AD
:1045700000213F220094019520235B42D31803D4ED
:10458000341C9C40231C04E05B469B1A341CDC401A
:10459000231C371C9740041C0D1C24184D41201C63
:1045A000291C0290039144463C40A2464C462340BD
:1045B0005446234305D0029B039C1D1C3543281CF5
:1045C000211C019B8B420AD802D1009B834206D852
:1045D000009B019CC01AA14163463B439C46013AA3
:1045E000CAD2009C019D62460599531ADB080F4A06
:1045F000934208D9069A0132D2B206920A1C0132BD
:104600000592082AAED14025069A082A04D0510303
:104610001943079B19800025281C09B03CBC904613
:104620009946A246AB46F0BDB1C00000FF1F000096
:1046300010B582B0041C0E4B1B78002B01D0002952
:104640000DD001A90C7013200A4B984713200A4B78
:104650009847074B5C7001221A70002006E0044B5B
:104660005B78834201D01D2000E0002002B010BD25
:10467000640100202D5A0000A1590000444B9842CB
:1046800033D006D8434B98420DD0434B98421BD0B1
:104690006FE0424B98424AD0414B984258D0414B30
:1046A000984266D132E0012906D0002963D0022960
:1046B00006D0032906D001E03B4867E0002065E012
:1046C0003A4863E03A4861E0012906D0002954D015
:1046D000022906D0032906D001E0364856E0002022
:1046E00054E0354852E0354850E0012906D0002911
:1046F00045D0022906D0032906D001E0304845E024
:10470000002043E02F4841E02F483FE0012906D038
:10471000002936D0022906D0032906D001E02B4813
:1047200034E0002032E02A4830E02A482EE0012917
:1047300006D0002927D0022906D0032906D001E09F
:10474000254823E0002021E024481FE024481DE004
:10475000012906D0002918D0022906D0032906D045
:1047600001E0204812E0002010E01F480EE01F4842
:104770000CE000200AE01E4808E0032006E01D4887
:1047800004E01D4802E01D4800E01D487047C04697
:104790000010004200080042000C004200180042D5
:1047A000001C004200140042030005000300060044
:1047B000030007000300010003001E0003001F00A8
:1047C0000300090003000A0003000B0003001100AE
:1047D000030012000300130003000D0003000E008D
:1047E00003000F0003001700030018000300190066
:1047F00003000400030008000300100003000C0085
:104800000300160030B587B00C4B6A4632CB32C27B
:1048100032CB32C2009B834206D001239A00694604
:104820005258824203D100E00023D8B203E00133A2
:10483000062BF3D1002007B030BDC04694EB00003A
:104840007047C046F0B50A4B1B78002B0CD1094FBE
:10485000094E0A4D0024DE515A1914600433182BF6
:10486000F9D10122024B1A708000024BC150F0BDF9
:104870006601002068010020414800001C1700204C
:1048800010B582B0041C684605490622054B9847BE
:10489000201C054B98476B46185602B010BDC04609
:1048A000ACEB0000EBD700000548000008B5024B58
:1048B0001B680020984708BD6801002008B5024B1E
:1048C0005B680120984708BD6801002008B5024BCD
:1048D0009B680220984708BD6801002008B5024B7C
:1048E000DB680320984708BD6801002008B5024B2B
:1048F0001B690420984708BD6801002008B5024BD9
:104900005B690520984708BD68010020F0B58BB0B1
:1049100001600C681C23A40700D5C4E00C68173B99
:10492000E40700D5BFE0161C0C1C051C081C5F4BDF
:1049300098475F490A6A871C0123BB4013430B62F7
:1049400009A92427F35D0B701430C3B20193181C1E
:10495000584B98470198584B9847F05D0021574BAA
:1049600098473378012B00D097E022680B3313432C
:10497000236092E004C38B42FCD10023EB62AB6264
:104980000024AB862B863633EC540133EC540133D0
:10499000EC54353B6B722C712868444B9847071CCC
:1049A0004749484B9847BF00474BFD502F6804AB21
:1049B00080221A705C707F3A9A70DC703378002B1A
:1049C00002D1002204AB9A70B36A0593F36A06938E
:1049D000336B0793736B08930024E1B2A30005AA1D
:1049E0009858002802D1381C384B9847431C06D0F1
:1049F00002AB1872000CC0B204A9354B98470134C1
:104A0000042CEAD133786B71337CAB71B37CEB71DE
:104A1000337D2B72002202ABDA803378012B13D165
:104A20002868224B98471430C0B22A4B9847011C83
:104A3000B06902AB9A1D284B98471723002832D142
:104A400002AB06331B783B73B36872681343F2689A
:104A50001343327C717C002903D12049897889076E
:104A600001D580210B43B17C002902D0802189022D
:104A70000A43F17C002902D0802189000A43317D5C
:104A8000002902D0802189010A4339680B433B6029
:104A90007B681A437A60002305E02B1C0C33291C29
:104AA0002831002266E7181C0BB0F0BD0548000055
:104AB000000400402D5A0000A159000031460000BA
:104AC000D54B0000454800001C1700207D46000023
:104AD000255B0000495A00004144000000200041CD
:104AE00010B544791523012C70D1047A0023002CD1
:104AF0006CD1002A5AD04B78002B46D003681B7E1D
:104B0000DB0710D40B78D9090022002904D15A09F7
:104B1000D2012F498C4662441F210B401E39994017
:104B20009161052352E00B78DC090022002C04D1AE
:104B30005A09D201264CA44662441F2423401E3C3D
:104B40009C4054618A780368197EC90700D59A622F
:104B5000C2790023002A39D102680421137E0B4256
:104B6000FCD0117E0023490730D5538B5B0703D55A
:104B7000518B04230B4353838379012B02D1936A16
:104B8000002323E0936A002320E00B78D909002258
:104B9000002904D15A09D2010D498C4662441F21D3
:104BA0000B401E399940516100230FE00B78D90961
:104BB0000022002904D15A09D20105498C466244D9
:104BC0001F210B401E39994091610023181C10BD14
:104BD00000440041F8B58000684BC458266836236D
:104BE000E35C3722A75C1F40337EB57D1D40EB0799
:104BF0003DD56379012B3AD1637A002B0FD1604BFD
:104C00001B88B362638E013B9BB26386638E9BB24B
:104C1000002B01D1013333756379012B27D1637ADE
:104C2000002B24D02068E16A0B78DAB24B1CE362D7
:104C3000A379012B01D093B204E04B781B021343FC
:104C40000231E162DB05DB0D8362A38E013B9BB287
:104C5000A386A38E9BB2002B09D101333375637AEF
:104C6000012B04D1E379002B01D10233B3756B071B
:104C700061D5738B5B0714D5637A012B0BD01E2291
:104C80003823E254353B6372023333753B0702D558
:104C9000201CA3699847B36A728B04231343738360
:104CA00049E0637A012B16D123689B6A638E013B2E
:104CB0009BB26386638E9BB2002B3CD10433337569
:104CC00000223433E254353B6372FB0733D5201C9A
:104CD000E36898472FE023689B6ADB05DB0DDAB2B7
:104CE000A16A0A70A26A511CA162A179012904D1AA
:104CF0001B0A5370A36A0133A362238E013B9BB24C
:104D00002386238E9BB2002B15D100223833E25428
:104D1000343B3375637A022B05D17B070BD5201CFE
:104D20006369984707E0637A002B04D1BB0702D57B
:104D3000201C23699847AB0714D56379012B11D147
:104D4000637A012B0ED1E379002B0BD1023333753B
:104D50000133637200223533E254FB0702D5201C75
:104D6000E3689847ED0907D08023337533767B06D7
:104D700002D5636A201C9847F8BDC0461C17002066
:104D800034170020F0B55F4656464D464446F0B411
:104D900091B0051C0C1C161C2960081CB94B9847C7
:104DA00022680523D20700D563E1226817339207F2
:104DB00000D55EE1B4490A6A871C1B3BBB40134324
:104DC0000B620FA92D27F35D0B701430C3B2029351
:104DD000181CAE4B98470298AD4B9847F05D0021E8
:104DE000AC4B9847F37A6B712423F35CAB712523AA
:104DF000F35CEB71F37E2B72337F6B722B689A46F8
:104E0000181CA04B9847143000220E2306A98C468C
:104E100063441A80338A99468023DB01994519D06F
:104E200004D880239B0199450AD003E1C023DB010C
:104E300099450AD080231B02994500D1FFE0F9E093
:104E4000102398460F3B0793FDE008239846073B45
:104E50000793F8E033689B46F36802937369039302
:104E6000337E04932623F35C059372680692002A2E
:104E700015D080235B059A4236D12723F35C002BA3
:104E800036D1336A9846C0B2834B9847011C4046DE
:104E90000E2206AB9C466244804B984725E00823CF
:104EA0009846002307932723F35C002B0BD043463F
:104EB0000093306AB16A0E2206AB9C466244079B9F
:104EC000774FB84711E0336A1F1CC0B2724B984746
:104ED000011C43460093381C0E2206AB9C466244DC
:104EE000079B6F4FB84700E00020031E00D0C0E0D2
:104EF000737E002B02D0B37E524693732A68069FBE
:104F0000D369002BFCD10E3306AA944663441B8858
:104F100052469381029B5A461343039A13433B43E1
:104F20004A461343049A12021343059A57071F4334
:104F30002723F35C002B01D104331F43337F590235
:104F4000727E93020B43727F120213432422B25CDF
:104F5000520413432522B25C12041343F17A19431D
:104F60003389FF2B04D0802252041743194305E0F4
:104F7000F37E002B02D08023DB041F432C23F35C41
:104F8000002B03D1474B9B789B0701D580231F4300
:104F90002A68D369002BFCD1534659602A68D3692B
:104FA000002BFCD153461F600EAB80221A700022EA
:104FB0005A70DA709A70336B0A93736B0B93B36BFE
:104FC0000C93F36B02930D9300270EAEF9B2BB0066
:104FD0000AAA9858002802D1201C334B9847431C3A
:104FE00005D03070000CC0B2311C304B98470137EF
:104FF000042FEBD10023EB602B616B61AB61EB61A4
:105000002B62AB626B620022EB85AB853033EA54D6
:105010000133EA540133EA540133EA542868194B46
:105020009847041C2249234B9847A400224BE55083
:1050300000231EE0102398460023079303E0032378
:1050400098460023079333689B46F368029373697D
:105050000393337E04932623F35C059372680692D0
:10506000002A00D11FE780235B059A4200D104E7A4
:105070003EE7181C11B03CBC90469946A246AB4690
:10508000F0BDC04605480000000400402D5A000055
:10509000A159000031460000495A00004144000077
:1050A00069440000002000417D460000255B0000AF
:1050B00025520000454800001C17002010B5046868
:1050C00082791C23002A33D0828D92B2173B002AAA
:1050D0002ED1227E52072BD5E369002BFCD1638BA6
:1050E000DBB29A0621D09A0703D5022363831833D3
:1050F0001EE05A0703D5042363831A3318E0DA0746
:1051000003D501236383123312E0DA0605D5628BDF
:1051100010231343638342230AE09B0605D5628B69
:10512000202313436383412302E0238D0B8000235C
:10513000181C10BDF8B5061C0C1C151C07680A4B82
:105140009847F38D9BB2002B03D0084B984705205E
:1051500009E0F585054B9847B46205223323F254E4
:10516000323BBB750020F8BD91410000D1410000E9
:10517000F8B5041C0D1C161C07680F4B9847A38D2F
:105180009BB2002B03D00D4B9847052013E0A6855A
:105190000A4B9847656205223223E2542E3BBB75C9
:1051A000237A002B01D02023BB75637A0020002BCB
:1051B00001D00823BB75F8BD91410000D14100002A
:1051C000931C9B00C3185960012393401A1C302183
:1051D000435C1A434254704708B5C2791C23002A25
:1051E00003D00122024B9847031C181C08BDC0467F
:1051F0003551000008B50122014B984708BDC04653
:1052000071510000002902D0012904D007E03223A7
:10521000C05CC0B204E03323C05CC0B200E0172021
:105220007047C046F8B58000654BC5582C68E369E7
:10523000002BFCD1237EA67D1E403123EB5C302267
:10524000AF5C1F40F30722D5EB8D9BB2002B1CD027
:10525000AA6A1378DBB2511CA9626979012901D0CD
:105260009BB204E0517809020B430232AA62DB05CB
:10527000DB0D2385EB8D013B9BB2EB85002B06D12B
:10528000013323750133A37501E001232375B307AF
:1052900009D50223237500223133EA54FB0702D5D6
:1052A000281CEB68984773076AD5AB8D9BB2002B1F
:1052B00064D0638BDBB21A0702D43F22134001E0B3
:1052C00037221340002B37D09A0707D51A223223F2
:1052D000EA54628B303B1343638327E05A0707D5B8
:1052E0001E223223EA54628B2E3B134363831DE05C
:1052F000DA0707D513223223EA54628B313B13437A
:10530000638313E0DA0607D542223223EA54628B24
:10531000223B1343638309E020221A4206D0213244
:105320003223EA54628B123B134363837B0727D5F6
:10533000281C6B69984723E0238DDB05DB0DDAB26F
:10534000696A0A706A6A511C69626979012904D123
:105350001B0A53706B6A01336B62AB8D013B9BB2CE
:10536000AB85002B0CD10433237500222E33EA5475
:10537000BB0705D5281C2B69984701E0042323753A
:10538000F30607D5102323752376FB0602D5281CC8
:10539000EB699847B30607D52023237523763B078F
:1053A00002D5281CAB699847330707D50823237516
:1053B0002376BB0602D52B6A281C9847F8BDC04649
:1053C0001C17002008B5082803D880001B4B1B5869
:1053D0009F46002031E01A4B18692EE0194B186ADD
:1053E0008005800F184BC340181C26E0144B5869E9
:1053F00023E0134B1B68022018401ED011491022D5
:10540000CB681A42FCD00E4B1B685B0714D50020FA
:105410000E4B98470A4B9B681B041B0C58430CE02F
:105420005023084AD35C00205B0706D5044BD8689C
:1054300003E08020000200E0054808BDB4EB000056
:10544000800100200008004000127A00495A000044
:10545000006CDC0270B50C4C236A017885784278C8
:105460000120024092014026B3431343021C2A400C
:10547000D2017F308343134303220A4012020349BF
:105480000B401343236270BD00080040FFFCFFFF88
:10549000F0B55F4656464D464446F0B483B02E4EB6
:1054A000B38A9C46457803785A425A41914683789C
:1054B0009B46C37802799046477B027B0192847BAE
:1054C00082682648426101204A46920091460422A1
:1054D0009246624651468A4394464A4661460A438A
:1054E000944642460240D2009046082291466246C7
:1054F00049468A439446424661460A4394460340DD
:105500001B0110229046624641468A431343594686
:1055100001404901202293430B43019A024092012A
:1055200040218B4313430740FF01802293433B43B9
:10553000793A15402D020A4F3B402B43044020038B
:10554000084C1C400443B48203B03CBC90469946CE
:10555000A246AB46F0BDC0460008004080010020D6
:10556000FFF8FFFFFFEFFFFF10B5037A9B061A0C51
:1055700043899B059B0D1343194C636081884388C5
:105580001943C379827913430B434278D201134301
:1055900023600378042B0FD1037B9B06028A1343FD
:1055A000191CC3891B040F4A13400B43A3602168D5
:1055B00004230B43236011E0202B0FD1037B9B06B8
:1055C000028A1343191CC3891B04064A13400B4368
:1055D000034A9360136804490B43136010BDC0462F
:1055E000800100200000FF0324040000082803D8E5
:1055F0008000254B1B589F46172044E0234A116A20
:1056000002230B43136200203DE0204A91690223EC
:105610000B439361002036E01C4A118A02230B439E
:10562000138200202FE0194A918A02230B439382B0
:10563000002028E016490B68022213430B60134B2D
:105640009A84191C0E32CB681A42FCD0104A916819
:105650000E4BD96252689A6200229A84191C103249
:10566000CB681A42FCD00A4B1B689BB2074A938452
:10567000002008E005494422885C022303438B5440
:10568000002000E000207047D8EB00000008004038
:1056900080010020F0B58FB0C222D200474B9A6043
:1056A00047494B681E2293431A3A13434B60023A10
:1056B00001AB1A700024434DE0B201A9A8470134A0
:1056C000252CF9D10AA800230370837080221202CE
:1056D0008260C370012202710373837302324270CD
:1056E0004373394B98470520384B9847334902227A
:1056F000CB681A42FCD0314A918A80230B439382B3
:1057000005AB00210022598099809A71DA713F31EE
:1057100059813B3919705A702D4B1B689B0E3F2BDA
:1057200000D1203B05A803722A4B03820723037391
:105730003833C381284B984704A8002545700126BB
:1057400086700570254B98470620204FB847244B9C
:10575000984701AC02966570257265720523237027
:105760000120211C1F4B984701201F4B9847267092
:105770000020211C134B984700201C4B9847072002
:10578000B8470E49D022CB681340D02BFBD1184A22
:105790000023137253729372D37201A901224A60DB
:1057A0004B700B724B7207330B7000200D4B9847F8
:1057B00000200D4B98470FB0F0BDC04600080040D8
:1057C000004000412D5A000091540000ED550000AA
:1057D00024608000B90500006955000055540000A0
:1057E000F557000019580000D1580000A1590000D9
:1057F00000040040064A916908230B43936101228B
:10580000044B1A70191C0B781342FCD17047C04628
:1058100000040040000C004070B5061C041C0D780C
:105820002D0205434B78002B02D08023DB021D4361
:105830004B7A002B02D080231B031D4348680128AC
:1058400018D9431E184210D1022806D9022300227B
:1058500001325B009842FBD800E000221202324382
:10586000141C80235B031D4304E0040234438023A3
:105870009B021D430B7A002B02D080239B031D4308
:105880000F4A53785BB2002BFBDB0E4B98470E4B55
:105890001E700B4A53785BB2002BFBDB084B9C60FD
:1058A0001A1C53785BB2002BFBDB054A516880233E
:1058B0005B020B401D435560044B984770BDC046CA
:1058C000000C004091410000080C0040D141000054
:1058D00010B5041C0B4A53785BB2002BFBDB0A4B60
:1058E00098470A4B1C70074A53785BB2002BFBDBCE
:1058F000044A5368802149020B435360044B984784
:1059000010BDC046000C004091410000040C004056
:10591000D141000070B5041C1A4A53785BB2002BC9
:10592000FBDB194B9847194B1C70164A53785BB236
:10593000002BFBDB134E7068C004C00E144B98475D
:10594000051C124B1C707668F602F60F114B1C708A
:105950000C4A53785BB2002BFBDB0A4B9C68240A91
:10596000A4B20D4B9847002E07D1012C07D9281C53
:10597000211C0A4B9847051C01E00134E540281C16
:1059800070BDC046000C004091410000040C004076
:10599000C5530000080C0040D1410000ADBD00001F
:1059A00010B5041C064B9847064B1C70064A5188DC
:1059B0008023DB010B435380044B984710BDC04646
:1059C00091410000020C0040000C0040D141000059
:1059D00010B5041C0F4B98470F4B1C700F4B5A8887
:1059E0001205100F59880E4A0A405A8059880D4AEC
:1059F0000A405A80191C8022D2014B881342FCD1E4
:105A0000064902024888064B034013434B80064B6D
:105A1000984710BD91410000020C0040000C00406E
:105A2000FFF0FFFFFFBFFFFFD141000010B50C7872
:105A300024020443024B9847A4B2024B5C8010BD81
:105A4000D1590000000C004010B5041C064B9847CB
:105A5000064B1C70064B5C882405240F054B9847A9
:105A6000201C054B984710BD91410000020C0040DE
:105A7000000C0040D14100001559000030B5D3782A
:105A8000002B1ED11478802C04D0240680235B02C6
:105A90001C4300E0002453780225AB430AD19378DD
:105AA000002B03D180239B021C4302E0C023DB02B6
:105AB0001C4341605378013B012B12D8184B1C400A
:105AC0000FE041600B041B0CA024E4052343836218
:105AD0000B0CD024240623438362D378002B18D0E8
